{
  "address": "0x12f725DFb080b8cB5B8AE0b7BC98DEE26B7EBC51",
  "abi": [
    {
      "inputs": [],
      "stateMutability": "nonpayable",
      "type": "constructor"
    },
    {
      "inputs": [],
      "name": "InvalidKMSSignatures",
      "type": "error"
    },
    {
      "inputs": [],
      "name": "NoHandleFoundForRequestID",
      "type": "error"
    },
    {
      "anonymous": false,
      "inputs": [
        {
          "indexed": true,
          "internalType": "bytes32",
          "name": "matchId",
          "type": "bytes32"
        },
        {
          "indexed": true,
          "internalType": "address",
          "name": "account",
          "type": "address"
        },
        {
          "indexed": false,
          "internalType": "uint256",
          "name": "amount",
          "type": "uint256"
        }
      ],
      "name": "Claimed",
      "type": "event"
    },
    {
      "anonymous": false,
      "inputs": [
        {
          "indexed": true,
          "internalType": "uint256",
          "name": "requestID",
          "type": "uint256"
        }
      ],
      "name": "DecryptionFulfilled",
      "type": "event"
    },
    {
      "anonymous": false,
      "inputs": [
        {
          "indexed": true,
          "internalType": "uint256",
          "name": "requestID",
          "type": "uint256"
        },
        {
          "indexed": true,
          "internalType": "bytes32",
          "name": "matchId",
          "type": "bytes32"
        }
      ],
      "name": "DecryptionRequested",
      "type": "event"
    },
    {
      "anonymous": false,
      "inputs": [
        {
          "indexed": true,
          "internalType": "bytes32",
          "name": "matchId",
          "type": "bytes32"
        },
        {
          "indexed": true,
          "internalType": "address",
          "name": "recipient",
          "type": "address"
        },
        {
          "indexed": false,
          "internalType": "uint256",
          "name": "fee",
          "type": "uint256"
        }
      ],
      "name": "FeePaid",
      "type": "event"
    },
    {
      "anonymous": false,
      "inputs": [
        {
          "indexed": true,
          "internalType": "bytes32",
          "name": "matchId",
          "type": "bytes32"
        },
        {
          "indexed": true,
          "internalType": "address",
          "name": "playerA",
          "type": "address"
        },
        {
          "indexed": false,
          "internalType": "enum PrivateRPS.MatchMode",
          "name": "mode",
          "type": "uint8"
        },
        {
          "indexed": false,
          "internalType": "uint256",
          "name": "stake",
          "type": "uint256"
        },
        {
          "indexed": false,
          "internalType": "uint64",
          "name": "deadline",
          "type": "uint64"
        }
      ],
      "name": "MatchCreated",
      "type": "event"
    },
    {
      "anonymous": false,
      "inputs": [
        {
          "indexed": true,
          "internalType": "bytes32",
          "name": "matchId",
          "type": "bytes32"
        },
        {
          "indexed": true,
          "internalType": "address",
          "name": "playerB",
          "type": "address"
        }
      ],
      "name": "MatchJoined",
      "type": "event"
    },
    {
      "anonymous": false,
      "inputs": [
        {
          "indexed": true,
          "internalType": "bytes32",
          "name": "matchId",
          "type": "bytes32"
        },
        {
          "indexed": false,
          "internalType": "enum PrivateRPS.State",
          "name": "state",
          "type": "uint8"
        },
        {
          "indexed": false,
          "internalType": "address",
          "name": "winner",
          "type": "address"
        }
      ],
      "name": "MatchResolved",
      "type": "event"
    },
    {
      "anonymous": false,
      "inputs": [
        {
          "indexed": true,
          "internalType": "bytes32",
          "name": "matchId",
          "type": "bytes32"
        },
        {
          "indexed": true,
          "internalType": "address",
          "name": "player",
          "type": "address"
        }
      ],
      "name": "MoveSubmitted",
      "type": "event"
    },
    {
      "anonymous": false,
      "inputs": [
        {
          "indexed": true,
          "internalType": "bytes32",
          "name": "matchId",
          "type": "bytes32"
        },
        {
          "indexed": true,
          "internalType": "address",
          "name": "player",
          "type": "address"
        },
        {
          "indexed": false,
          "internalType": "address",
          "name": "winner",
          "type": "address"
        }
      ],
      "name": "WinnerAttested",
      "type": "event"
    },
    {
      "inputs": [],
      "name": "attestGrace",
      "outputs": [
        {
          "internalType": "uint64",
          "name": "",
          "type": "uint64"
        }
      ],
      "stateMutability": "view",
      "type": "function"
    },
    {
      "inputs": [
        {
          "internalType": "bytes32",
          "name": "matchId",
          "type": "bytes32"
        },
        {
          "internalType": "address",
          "name": "winnerAddr",
          "type": "address"
        }
      ],
      "name": "attestWinner",
      "outputs": [],
      "stateMutability": "nonpayable",
      "type": "function"
    },
    {
      "inputs": [
        {
          "internalType": "bytes32",
          "name": "",
          "type": "bytes32"
        },
        {
          "internalType": "address",
          "name": "",
          "type": "address"
        }
      ],
      "name": "attestedWinner",
      "outputs": [
        {
          "internalType": "address",
          "name": "",
          "type": "address"
        }
      ],
      "stateMutability": "view",
      "type": "function"
    },
    {
      "inputs": [
        {
          "internalType": "bytes32",
          "name": "matchId",
          "type": "bytes32"
        }
      ],
      "name": "claim",
      "outputs": [],
      "stateMutability": "nonpayable",
      "type": "function"
    },
    {
      "inputs": [
        {
          "internalType": "externalEuint8",
          "name": "encMove",
          "type": "bytes32"
        },
        {
          "internalType": "bytes",
          "name": "inputProof",
          "type": "bytes"
        },
        {
          "internalType": "enum PrivateRPS.MatchMode",
          "name": "mode",
          "type": "uint8"
        },
        {
          "internalType": "uint256",
          "name": "stake",
          "type": "uint256"
        },
        {
          "internalType": "uint64",
          "name": "deadline",
          "type": "uint64"
        }
      ],
      "name": "createAndCommit",
      "outputs": [
        {
          "internalType": "bytes32",
          "name": "matchId",
          "type": "bytes32"
        }
      ],
      "stateMutability": "payable",
      "type": "function"
    },
    {
      "inputs": [
        {
          "internalType": "bytes32",
          "name": "matchId",
          "type": "bytes32"
        }
      ],
      "name": "expireCreated",
      "outputs": [],
      "stateMutability": "nonpayable",
      "type": "function"
    },
    {
      "inputs": [
        {
          "internalType": "bytes32",
          "name": "matchId",
          "type": "bytes32"
        }
      ],
      "name": "expireLocked",
      "outputs": [],
      "stateMutability": "nonpayable",
      "type": "function"
    },
    {
      "inputs": [],
      "name": "feeRecipient",
      "outputs": [
        {
          "internalType": "address",
          "name": "",
          "type": "address"
        }
      ],
      "stateMutability": "view",
      "type": "function"
    },
    {
      "inputs": [
        {
          "internalType": "bytes32",
          "name": "matchId",
          "type": "bytes32"
        },
        {
          "internalType": "address",
          "name": "winnerAddr",
          "type": "address"
        }
      ],
      "name": "finalizeWinner",
      "outputs": [],
      "stateMutability": "nonpayable",
      "type": "function"
    },
    {
      "inputs": [
        {
          "internalType": "bytes32",
          "name": "matchId",
          "type": "bytes32"
        }
      ],
      "name": "getEncryptedOutcome",
      "outputs": [
        {
          "internalType": "bytes32",
          "name": "winnerHandle",
          "type": "bytes32"
        }
      ],
      "stateMutability": "view",
      "type": "function"
    },
    {
      "inputs": [
        {
          "internalType": "enum PrivateRPS.MatchMode",
          "name": "mode",
          "type": "uint8"
        },
        {
          "internalType": "uint256",
          "name": "stake",
          "type": "uint256"
        }
      ],
      "name": "getPendingMatchCount",
      "outputs": [
        {
          "internalType": "uint256",
          "name": "",
          "type": "uint256"
        }
      ],
      "stateMutability": "view",
      "type": "function"
    },
    {
      "inputs": [
        {
          "internalType": "enum PrivateRPS.MatchMode",
          "name": "mode",
          "type": "uint8"
        },
        {
          "internalType": "uint256",
          "name": "stake",
          "type": "uint256"
        },
        {
          "internalType": "uint256",
          "name": "offset",
          "type": "uint256"
        },
        {
          "internalType": "uint256",
          "name": "limit",
          "type": "uint256"
        }
      ],
      "name": "getPendingMatches",
      "outputs": [
        {
          "internalType": "bytes32[]",
          "name": "matchIds",
          "type": "bytes32[]"
        },
        {
          "internalType": "uint256",
          "name": "total",
          "type": "uint256"
        }
      ],
      "stateMutability": "view",
      "type": "function"
    },
    {
      "inputs": [
        {
          "internalType": "bytes32",
          "name": "matchId",
          "type": "bytes32"
        }
      ],
      "name": "getStatus",
      "outputs": [
        {
          "internalType": "enum PrivateRPS.State",
          "name": "state",
          "type": "uint8"
        },
        {
          "internalType": "address",
          "name": "playerA",
          "type": "address"
        },
        {
          "internalType": "address",
          "name": "playerB",
          "type": "address"
        },
        {
          "internalType": "uint256",
          "name": "stake",
          "type": "uint256"
        },
        {
          "internalType": "uint64",
          "name": "deadline",
          "type": "uint64"
        },
        {
          "internalType": "enum PrivateRPS.MatchMode",
          "name": "mode",
          "type": "uint8"
        },
        {
          "internalType": "address",
          "name": "winner",
          "type": "address"
        }
      ],
      "stateMutability": "view",
      "type": "function"
    },
    {
      "inputs": [
        {
          "internalType": "bytes32",
          "name": "matchId",
          "type": "bytes32"
        },
        {
          "internalType": "externalEuint8",
          "name": "encMove",
          "type": "bytes32"
        },
        {
          "internalType": "bytes",
          "name": "inputProof",
          "type": "bytes"
        }
      ],
      "name": "joinAndCommit",
      "outputs": [],
      "stateMutability": "payable",
      "type": "function"
    },
    {
      "inputs": [
        {
          "internalType": "bytes32",
          "name": "",
          "type": "bytes32"
        },
        {
          "internalType": "uint256",
          "name": "",
          "type": "uint256"
        }
      ],
      "name": "matchQueue",
      "outputs": [
        {
          "internalType": "bytes32",
          "name": "",
          "type": "bytes32"
        }
      ],
      "stateMutability": "view",
      "type": "function"
    },
    {
      "inputs": [
        {
          "internalType": "bytes32",
          "name": "",
          "type": "bytes32"
        }
      ],
      "name": "matches",
      "outputs": [
        {
          "internalType": "address",
          "name": "playerA",
          "type": "address"
        },
        {
          "internalType": "address",
          "name": "playerB",
          "type": "address"
        },
        {
          "internalType": "uint256",
          "name": "stake",
          "type": "uint256"
        },
        {
          "internalType": "uint64",
          "name": "deadline",
          "type": "uint64"
        },
        {
          "internalType": "enum PrivateRPS.MatchMode",
          "name": "mode",
          "type": "uint8"
        },
        {
          "internalType": "enum PrivateRPS.State",
          "name": "state",
          "type": "uint8"
        },
        {
          "internalType": "euint8",
          "name": "moveA",
          "type": "bytes32"
        },
        {
          "internalType": "euint8",
          "name": "moveB",
          "type": "bytes32"
        },
        {
          "internalType": "address",
          "name": "winner",
          "type": "address"
        },
        {
          "internalType": "eaddress",
          "name": "winnerEnc",
          "type": "bytes32"
        }
      ],
      "stateMutability": "view",
      "type": "function"
    },
    {
      "inputs": [],
      "name": "maxDeadlineDelta",
      "outputs": [
        {
          "internalType": "uint64",
          "name": "",
          "type": "uint64"
        }
      ],
      "stateMutability": "view",
      "type": "function"
    },
    {
      "inputs": [],
      "name": "maxStake",
      "outputs": [
        {
          "internalType": "uint256",
          "name": "",
          "type": "uint256"
        }
      ],
      "stateMutability": "view",
      "type": "function"
    },
    {
      "inputs": [],
      "name": "minStake",
      "outputs": [
        {
          "internalType": "uint256",
          "name": "",
          "type": "uint256"
        }
      ],
      "stateMutability": "view",
      "type": "function"
    },
    {
      "inputs": [
        {
          "internalType": "uint256",
          "name": "requestID",
          "type": "uint256"
        },
        {
          "internalType": "bytes",
          "name": "cleartexts",
          "type": "bytes"
        },
        {
          "internalType": "bytes",
          "name": "decryptionProof",
          "type": "bytes"
        }
      ],
      "name": "onDecryption",
      "outputs": [],
      "stateMutability": "nonpayable",
      "type": "function"
    },
    {
      "inputs": [],
      "name": "owner",
      "outputs": [
        {
          "internalType": "address",
          "name": "",
          "type": "address"
        }
      ],
      "stateMutability": "view",
      "type": "function"
    },
    {
      "inputs": [],
      "name": "protocolId",
      "outputs": [
        {
          "internalType": "uint256",
          "name": "",
          "type": "uint256"
        }
      ],
      "stateMutability": "pure",
      "type": "function"
    },
    {
      "inputs": [],
      "name": "rakeBps",
      "outputs": [
        {
          "internalType": "uint16",
          "name": "",
          "type": "uint16"
        }
      ],
      "stateMutability": "view",
      "type": "function"
    },
    {
      "inputs": [],
      "name": "relayer",
      "outputs": [
        {
          "internalType": "address",
          "name": "",
          "type": "address"
        }
      ],
      "stateMutability": "view",
      "type": "function"
    },
    {
      "inputs": [
        {
          "internalType": "uint256",
          "name": "",
          "type": "uint256"
        }
      ],
      "name": "requestIdToMatchId",
      "outputs": [
        {
          "internalType": "bytes32",
          "name": "",
          "type": "bytes32"
        }
      ],
      "stateMutability": "view",
      "type": "function"
    },
    {
      "inputs": [
        {
          "internalType": "bytes32",
          "name": "matchId",
          "type": "bytes32"
        }
      ],
      "name": "resolve",
      "outputs": [],
      "stateMutability": "nonpayable",
      "type": "function"
    },
    {
      "inputs": [
        {
          "internalType": "uint64",
          "name": "_sec",
          "type": "uint64"
        }
      ],
      "name": "setAttestGrace",
      "outputs": [],
      "stateMutability": "nonpayable",
      "type": "function"
    },
    {
      "inputs": [
        {
          "internalType": "uint16",
          "name": "_rakeBps",
          "type": "uint16"
        },
        {
          "internalType": "address",
          "name": "_feeRecipient",
          "type": "address"
        }
      ],
      "name": "setFeeParams",
      "outputs": [],
      "stateMutability": "nonpayable",
      "type": "function"
    },
    {
      "inputs": [
        {
          "internalType": "uint64",
          "name": "_maxDelta",
          "type": "uint64"
        }
      ],
      "name": "setMaxDeadlineDelta",
      "outputs": [],
      "stateMutability": "nonpayable",
      "type": "function"
    },
    {
      "inputs": [
        {
          "internalType": "address",
          "name": "_relayer",
          "type": "address"
        }
      ],
      "name": "setRelayer",
      "outputs": [],
      "stateMutability": "nonpayable",
      "type": "function"
    },
    {
      "inputs": [
        {
          "internalType": "uint256",
          "name": "_minStake",
          "type": "uint256"
        },
        {
          "internalType": "uint256",
          "name": "_maxStake",
          "type": "uint256"
        }
      ],
      "name": "setStakeRange",
      "outputs": [],
      "stateMutability": "nonpayable",
      "type": "function"
    },
    {
      "stateMutability": "payable",
      "type": "receive"
    }
  ],
  "transactionHash": "0x0246de4aa55729eb2cdfe654ae67bbe1c9c19a4c9f3b2152d12919cd005350a6",
  "args": [],
  "numDeployments": 1,
  "solcInputHash": "2d88c3fd6221a5464c91452e1f286c82",
  "bytecode": "0x6080604052346101cb575f60606100146101cf565b8281528260208201528260408201520152731364cbbf2cdf5032c47d8226a6f6fbd2afcdacac60606100446101cf565b73687820221192c5b662b25367f70076a37bc79b6c80825273848b0066793bcc60346da1f49049357399b8d5956020830181905273a02cda4ca3a71d7c46997716f4283aa851c28812604080850182905294909301949094527f9e7b61f58c47dc699ac88507c4f5bb9f121c03808c5676a8078fe583e464970080546001600160a01b031990811690921790557f9e7b61f58c47dc699ac88507c4f5bb9f121c03808c5676a8078fe583e4649701805482169094179093557f9e7b61f58c47dc699ac88507c4f5bb9f121c03808c5676a8078fe583e46497028054841690911790557f9e7b61f58c47dc699ac88507c4f5bb9f121c03808c5676a8078fe583e464970380548316731364cbbf2cdf5032c47d8226a6f6fbd2afcdacac1790555f805460018054909416339081179094556001600160b01b03191661ffff60a01b199093169290921782556002919091555f19600355600480546001600160401b03199081166202a300179091556005805490911661025817905551612e0590816102038239f35b5f80fd5b60405190608082016001600160401b038111838210176101ee57604052565b634e487b7160e01b5f52604160045260245ffdfe6080604052600436101561001a575b3615610018575f80fd5b005b5f3560e01c8063105e6c8e14611a1a5780631a8d0283146119f3578063217b48df146118c457806321c9c44a146118a1578063375b3c0a1461188457806338e576c81461185d57806346904840146118375780634b672c941461180d5780635c23bdf5146117e05780635de28ae01461173d5780636548e9bc146116b45780637e6aa3f914611666578063809dfab0146116205780638406c079146115f7578063890414551461148957806389e6e1a5146111c85780638da5cb5b146111a35780638ddf6c111461104657806390ed25aa14610ff35780639fe9ada314610f2e578063b44fc9e814610e91578063bad8519314610e42578063bd66528a14610e0f578063c42aca0614610a9a578063c4e59546146109ec578063ce1da22614610787578063d023d07f146103d2578063da1f12ab146103b6578063e0120cf81461027e578063e1c8e2b0146101945763ea1b28e00361000e5734610190575f366003190112610190576020600354604051908152f35b5f80fd5b34610190576020366003190112610190576004355f52600660205260405f206001600160a01b03815416151580610268575b6101cf90611c8a565b60ff600382015460481c1660058110156102545760028114908115610249575b50156102045760076020910154604051908152f35b60405162461bcd60e51b815260206004820152600b60248201527f756e617661696c61626c650000000000000000000000000000000000000000006044820152606490fd5b6003915014826101ef565b634e487b7160e01b5f52602160045260245ffd5b5060018101546001600160a01b031615156101c6565b346101905760403660031901126101905760043561ffff8116808203610190576102a6611ae4565b6127105f54926102c06001600160a01b0385163314611b84565b11610371576001600160a01b031691821561032c5775ffff00000000000000000000000000000000000000007fffffffffffffffffffff0000ffffffffffffffffffffffffffffffffffffffff9160a01b169116175f556001600160a01b031960015416176001555f80f35b60405162461bcd60e51b815260206004820152600d60248201527f62616420726563697069656e74000000000000000000000000000000000000006044820152606490fd5b60405162461bcd60e51b815260206004820152600960248201527f6270732072616e676500000000000000000000000000000000000000000000006044820152606490fd5b34610190575f3660031901126101905760206040516127118152f35b346101905760603660031901126101905760043560243567ffffffffffffffff811161019057610406903690600401611b56565b60443567ffffffffffffffff81116101905761042961044f913690600401611b56565b9190610437600a5415611bd0565b6001600a55610447368587612736565b923691612736565b90845f527f878245876662ba28a480c5ea71726db859fb50222b0a3d7cbbc21cfa336faf0160205260405f20541561077857845f527f878245876662ba28a480c5ea71726db859fb50222b0a3d7cbbc21cfa336faf0160205260405f20604051808260208294549384815201905f5260205f20925f5b81811061075f5750506104da92500382612133565b81519283602001938460201161074b5760400180941161074b5761057e5f6020949361052a868080976105909a60405199828b9351918291018585015e8201908382015203018088520186612133565b6105a26001600160a01b037f9e7b61f58c47dc699ac88507c4f5bb9f121c03808c5676a8078fe583e4649703541694604051988997889687956378542ead60e01b8752606060048801526064870190611b23565b85810360031901602487015290612db4565b83810360031901604485015290612db4565b03925af1908115610740575f91610705575b50156106f657827f1af0453083661051f6e56e5c070792320652e612154bf9af8637bb1e7655b99d5f80a2825f52600760205260405f205491825f52600660205260405f2091600383019060ff825460481c16600581101561025457600261061c9114611c1c565b602081106106b1576020116101905760ff6001600160a01b0391828060067f2ed61222d6d0d58a1022eb7fd54cb612022d76263aee0e8941b5a8d7b64f38629701953516166001600160a01b0319855416178455600360481b60ff60481b198254161781555460481c169154169061069960405192839283611c68565b0390a25f5260076020525f60408120555f600a555f80f35b60405162461bcd60e51b815260206004820152600d60248201527f62616420636c65617274657874000000000000000000000000000000000000006044820152606490fd5b63cf6c44e960e01b5f5260045ffd5b90506020813d602011610738575b8161072060209383612133565b810103126101905751801515810361019057846105b4565b3d9150610713565b6040513d5f823e3d90fd5b634e487b7160e01b5f52601160045260245ffd5b84548352600194850194869450602090930192016104c5565b63d66ca67560e01b5f5260045ffd5b60603660031901126101905760043560443567ffffffffffffffff8111610190576107b6903690600401611b56565b825f52600660205260405f206001600160a01b03815416916107d9831515611c8a565b600182016001600160a01b038154166109c157600383019384549060ff8260481c1660058110156102545761080e9015611c1c565b67ffffffffffffffff821642101561097c5733146109375760401c60ff1660028110156102545760ff879561089461088761087f6108da9a6108c4986108d2986001600299145f1461092857610868898d0154341461269e565b80546001600160a01b031916331790553691612736565b602435612a56565b8060058901553090612d39565b690200000000000000000060ff60481b198254161781555460401c16930154604051928391602083019586612117565b03601f198101835282612133565b51902061292e565b33817fbc51cb30bdcb0766b64964ec76f45d9e4e9856f1558cbba8c7a6024fa7ec80fd5f80a333907fdc046b4d6fd311c7186ef2d0e904749428b34d9d65b09d177051398e3e5bcf705f80a3005b61093234156126ea565b610868565b60405162461bcd60e51b815260206004820152600b60248201527f73616d6520706c617965720000000000000000000000000000000000000000006044820152606490fd5b60405162461bcd60e51b815260206004820152600760248201527f65787069726564000000000000000000000000000000000000000000000000006044820152606490fd5b606460405162461bcd60e51b8152602060048201526004602482015263199d5b1b60e21b6044820152fd5b346101905760203660031901126101905767ffffffffffffffff610a0e611ab3565b610a236001600160a01b035f54163314611b84565b1680151580610a8d575b15610a485767ffffffffffffffff1960055416176005555f80f35b60405162461bcd60e51b815260206004820152600960248201527f62616420677261636500000000000000000000000000000000000000000000006044820152606490fd5b5062093a80811115610a2d565b60a03660031901126101905760243567ffffffffffffffff811161019057610ac6903690600401611b56565b90604435600281101561019057606435926084359067ffffffffffffffff82168092036101905742821115610dca5767ffffffffffffffff4216820367ffffffffffffffff811161074b5767ffffffffffffffff8060045416911611610d855782610d0d5784610cc8576004610be191610b4034156126ea565b610bd5610bce60405160208101903360601b825242603482015244605482015260548152610b6f607482612133565b5190205f818152600660205260409081902080546001600160a01b03191633178155600381018054600283018e905569ffffffffffffffffffff1916928b901b68ff000000000000000016929092178917909155909890933691612736565b8335612a56565b91829101553090612d39565b6040516020810190610bf8816108c4888786612117565b5190205f52600960205260405f209384549468010000000000000000861015610cb45784610c3187610c4993600160209a018155611afa565b90919082549060031b91821b915f19901b1916179055565b610c566040518094611ad7565b848301526040820152817fce1f529eaf6d925869561ac4b570b2aa5aedc58cb469c5e5fd61b75e3c96639160603393a36040519033817fdc046b4d6fd311c7186ef2d0e904749428b34d9d65b09d177051398e3e5bcf705f80a38152f35b634e487b7160e01b5f52604160045260245ffd5b60405162461bcd60e51b815260206004820152601060248201527f7072616374696365207374616b653d30000000000000000000000000000000006044820152606490fd5b60025485101580610d79575b15610d34576004610be191610d2f87341461269e565b610b40565b60405162461bcd60e51b815260206004820152600b60248201527f7374616b652072616e67650000000000000000000000000000000000000000006044820152606490fd5b50600354851115610d19565b60405162461bcd60e51b815260206004820152601060248201527f646561646c696e6520746f6f20666172000000000000000000000000000000006044820152606490fd5b60405162461bcd60e51b815260206004820152600d60248201527f646561646c696e652070617374000000000000000000000000000000000000006044820152606490fd5b3461019057602036600319011261019057610e2c600a5415611bd0565b6001600a55610e3c6004356122bd565b5f600a55005b3461019057604036600319011261019057600435600281101561019057604051610e78816108c460208201946024359086612117565b5190205f526009602052602060405f2054604051908152f35b346101905760403660031901126101905760043560243590610ebe6001600160a01b035f54163314611b84565b811590818015610f24575b15610edf5760025515610eda57505f195b600355005b60405162461bcd60e51b815260206004820152600560248201527f72616e67650000000000000000000000000000000000000000000000000000006044820152606490fd5b5080831015610ec9565b34610190576020366003190112610190576004355f52600660205261014060405f206001600160a01b03815416906001600160a01b036001820154169060028101546003820154610fdb60048401549160058501549360076001600160a01b03600688015416960154966040519889526020890152604088015267ffffffffffffffff81166060880152610fcb6080880160ff8360401c16611ad7565b60ff60a088019160481c16611aca565b60c085015260e0840152610100830152610120820152f35b346101905760803660031901126101905760043560028110156101905761102861103c91606435906044359060243590612187565b604051928392604084526040840190611b23565b9060208301520390f35b3461019057602036600319011261019057600435611066600a5415611bd0565b6001600a55805f52600660205260405f2061108c6001600160a01b038254161515611c8a565b6003810180549060ff8260481c166005811015610254576110ad9015611c1c565b6001600160a01b0360018401541661115e57611137847f2ed61222d6d0d58a1022eb7fd54cb612022d76263aee0e8941b5a8d7b64f3862946110fd67ffffffffffffffff60ff9616421015611cd6565b690400000000000000000060ff60481b198554161784556108c46108d2600287875460401c16930154604051928391602083019586612117565b5460481c16604051809161114f826040810192611aca565b5f60208301520390a25f600a55005b60405162461bcd60e51b815260206004820152600e60248201527f616c7265616479206a6f696e65640000000000000000000000000000000000006044820152606490fd5b34610190575f3660031901126101905760206001600160a01b035f5416604051908152f35b34610190576040366003190112610190576004356111e4611ae4565b6111f0600a5415611bd0565b6001600a55815f52600660205260405f20906001600160a01b038254169081151580611473575b61122090611c8a565b600383019160ff835460481c1660058110156102545760026112429114611c1c565b3314801561145d575b1561141857835f52600860205260405f206001600160a01b0333165f5260205260405f206001600160a01b0382166001600160a01b03198254161790556001600160a01b0360405191168152837f6d7d564499c52cdb77e574fce7d3cb543f4348091f77750902edff3466605c0e60203393a35f83815260086020908152604080832085546001600160a01b039081168552925280832054600186015483168452922054918116911681158080611410575b15611375575050506001600160a01b0360ff60067f2ed61222d6d0d58a1022eb7fd54cb612022d76263aee0e8941b5a8d7b64f38629401926001600160a01b03198454168455600360481b60ff60481b198254161781555460481c169154169061136c60405192839283611c68565b0390a25f600a55005b929192159081611406575b5061138f575b50505050610e3c565b60ff6001600160a01b03918260067f2ed61222d6d0d58a1022eb7fd54cb612022d76263aee0e8941b5a8d7b64f3862960194166001600160a01b0319855416178455600360481b60ff60481b198254161781555460481c16915416906113fa60405192839283611c68565b0390a280808080611386565b9050821485611380565b5081156112fd565b60405162461bcd60e51b815260206004820152600a60248201527f6e6f7420706c61796572000000000000000000000000000000000000000000006044820152606490fd5b506001600160a01b03600184015416331461124b565b5060018301546001600160a01b03161515611217565b34610190576040366003190112610190576004356114a5611ae4565b6114b1600a5415611bd0565b6001600a556001600160a01b0360045460401c16331480156115e4575b1561159f57815f52600660205260405f20906001600160a01b03825416151580611589575b6114fc90611c8a565b600382019160ff835460481c166005811015610254577f2ed61222d6d0d58a1022eb7fd54cb612022d76263aee0e8941b5a8d7b64f3862936001600160a01b036006819461154e600260ff9614611c1c565b0194166001600160a01b0319855416178455600360481b60ff60481b198254161781555460481c169154169061136c60405192839283611c68565b5060018201546001600160a01b031615156114f3565b60405162461bcd60e51b815260206004820152600b60248201527f6e6f742072656c617965720000000000000000000000000000000000000000006044820152606490fd5b506001600160a01b035f541633146114ce565b34610190575f3660031901126101905760206001600160a01b0360045460401c16604051908152f35b34610190576040366003190112610190576024356004355f52600960205260405f2080548210156101905760209161165791611afa565b90549060031b1c604051908152f35b346101905760403660031901126101905761167f611ae4565b6004355f5260086020526001600160a01b0360405f2091165f5260205260206001600160a01b0360405f205416604051908152f35b34610190576020366003190112610190576004356001600160a01b0381168103610190576116ed6001600160a01b035f54163314611b84565b7fffffffff0000000000000000000000000000000000000000ffffffffffffffff7bffffffffffffffffffffffffffffffffffffffff00000000000000006004549260401b169116176004555f80f35b34610190576020366003190112610190576004355f52600660205260e060405f206003810154906117d96001600160a01b03825416926001600160a01b03600184015416926001600160a01b03600660028301549201541693604051956117aa8760ff8660481c16611aca565b60208701526040860152606085015267ffffffffffffffff8116608085015260ff60a085019160401c16611ad7565b60c0820152f35b34610190576020366003190112610190576117fd600a5415611bd0565b6001600a55610e3c600435611d22565b34610190576020366003190112610190576004355f526007602052602060405f2054604051908152f35b34610190575f3660031901126101905760206001600160a01b0360015416604051908152f35b34610190575f36600319011261019057602067ffffffffffffffff60045416604051908152f35b34610190575f366003190112610190576020600254604051908152f35b34610190575f36600319011261019057602061ffff5f5460a01c16604051908152f35b34610190576020366003190112610190576004356118e4600a5415611bd0565b6001600a55805f52600660205260405f2060038101805460ff8160481c1660058110156102545760026119179114611c1c565b67ffffffffffffffff806005541691160167ffffffffffffffff811161074b5767ffffffffffffffff1642106119ae576001600160a01b0360ff60067f2ed61222d6d0d58a1022eb7fd54cb612022d76263aee0e8941b5a8d7b64f38629401926001600160a01b03198454168455600360481b60ff60481b198254161781555460481c169154169061136c60405192839283611c68565b60405162461bcd60e51b815260206004820152600760248201527f6e6f7420647565000000000000000000000000000000000000000000000000006044820152606490fd5b34610190575f36600319011261019057602067ffffffffffffffff60055416604051908152f35b346101905760203660031901126101905767ffffffffffffffff611a3c611ab3565b611a516001600160a01b035f54163314611b84565b168015611a6e5767ffffffffffffffff1960045416176004555f80f35b60405162461bcd60e51b815260206004820152600960248201527f6261642064656c746100000000000000000000000000000000000000000000006044820152606490fd5b6004359067ffffffffffffffff8216820361019057565b9060058210156102545752565b9060028210156102545752565b602435906001600160a01b038216820361019057565b8054821015611b0f575f5260205f2001905f90565b634e487b7160e01b5f52603260045260245ffd5b90602080835192838152019201905f5b818110611b405750505090565b8251845260209384019390920191600101611b33565b9181601f840112156101905782359167ffffffffffffffff8311610190576020838186019501011161019057565b15611b8b57565b60405162461bcd60e51b815260206004820152600960248201527f6e6f74206f776e657200000000000000000000000000000000000000000000006044820152606490fd5b15611bd757565b60405162461bcd60e51b815260206004820152600a60248201527f7265656e7472616e6379000000000000000000000000000000000000000000006044820152606490fd5b15611c2357565b60405162461bcd60e51b815260206004820152600960248201527f62616420737461746500000000000000000000000000000000000000000000006044820152606490fd5b9092916001600160a01b03602091611c84846040810197611aca565b16910152565b15611c9157565b60405162461bcd60e51b815260206004820152600960248201527f6e6f7420666f756e6400000000000000000000000000000000000000000000006044820152606490fd5b15611cdd57565b60405162461bcd60e51b815260206004820152600b60248201527f6e6f7420657870697265640000000000000000000000000000000000000000006044820152606490fd5b805f52600660205260405f206001600160a01b03815416151580612101575b611d4a90611c8a565b600381019081549060ff8260481c16600581101561025457806001611d7892149081156120f6575b50611c1c565b600481019182541515806120e9575b156120715750611e2c611e1a611da68454611da0612b67565b9061276c565b611e10611db68654611da0612bb5565b611e0a611dc68854611da0612c04565b93611e046005890195611e0a611ddf8854611da0612b67565b93611e04611df08a54611da0612bb5565b91611dfe8b54611da0612c04565b90612820565b92612820565b906128a7565b945490549061276c565b611dfe611e2685612cf0565b91612cf0565b91611e406001600160a01b03835416612c53565b6001830191611e586001600160a01b03845416612c53565b5f516020612dd95f395f51905f5254604051639cd07acb60e01b81525f600482015296906001600160a01b0316876044815f602094600760248401525af1968715610740575f9761203a575b509060646020925f6001600160a01b035f516020612dd95f395f51905f5254166040519a8b958694637702dcff60e01b86526004860152602485015260448401525af1948515610740575f95612003575b509060646020925f6001600160a01b035f516020612dd95f395f51905f5254166040519889958694637702dcff60e01b86526004860152602485015260448401525af1928315610740575f93611fcd575b5091611f756001600160a01b03600694611f603085612d39565b611f6d8286541685612d39565b541682612d39565b60078201550180546001600160a01b0319169055805469ff000000000000000000191669020000000000000000001790555f7f0170267a42a2a50742099143ac731e7657f4a2a459fb53660f9a1094eb06cf0d8180a3565b92506020833d602011611ffb575b81611fe860209383612133565b8101031261019057915191611f75611f46565b3d9150611fdb565b919094506020823d602011612032575b8161202060209383612133565b81010312610190579051936064611ef5565b3d9150612013565b919096506020823d602011612069575b8161205760209383612133565b81010312610190579051956064611ea4565b3d915061204a565b60ff92507f2ed61222d6d0d58a1022eb7fd54cb612022d76263aee0e8941b5a8d7b64f386293915067ffffffffffffffff6120af9116421015611cd6565b690400000000000000000060ff60481b198254161781555460481c1660405180916120de826040810192611aca565b5f60208301520390a2565b5060058201541515611d87565b60029150145f611d72565b5060018101546001600160a01b03161515611d41565b909160028310156102545760219260f81b825260018201520190565b90601f8019910116810190811067ffffffffffffffff821117610cb457604052565b67ffffffffffffffff8111610cb45760051b60200190565b9190820180921161074b57565b9190820391821161074b57565b906121a36108c491959495604051928391602083019586612117565b5190205f52600960205260405f2080549384831015612256576121c6908361216d565b8285821161224e575b6121d89161217a565b906121e282612155565b926121f06040519485612133565b828452601f196121ff84612155565b013660208601375f5b83811061221757505050509190565b61222a612224828461216d565b84611afa565b90549060031b1c908551811015611b0f5760019160208260051b8801015201612208565b8591506121cf565b505050604051612267602082612133565b5f81525f3681379190565b67ffffffffffffffff8111610cb457601f01601f191660200190565b3d156122b8573d9061229f82612272565b916122ad6040519384612133565b82523d5f602084013e565b606090565b805f52600660205260405f206001600160a01b03815416916122e0831515611c8a565b6003820192835460ff8160401c166002811015610254576001036126595760481c60ff1660058110156102545760041461259a5750906001600160a01b038154169283151580612584575b1561253f575460481c60ff166005811015610254576003036124fa5760068101926001600160a01b03845416156124cd57506001600160a01b0383541633036124885760020154908160011b918083046002149015171561074b575f5460a01c61ffff168061246957506123a05f809361217a565b91806123be575b506001600160a01b036123bc935416906129d2565b565b5f808080846001600160a01b03600154165af16123d961228e565b5015612424576123bc936001600160a01b0391837f0ae7c9bfbc7dfc3426a34852f9a1cdd2f750abec8190abbff0bbe13d8118c30c6020856001541693604051908152a393506123a7565b60405162461bcd60e51b815260206004820152600860248201527f66656520786665720000000000000000000000000000000000000000000000006044820152606490fd5b80830290838204148315171561074b576127106123a09104809361217a565b60405162461bcd60e51b815260206004820152600a60248201527f6e6f742077696e6e6572000000000000000000000000000000000000000000006044820152606490fd5b906123bc93506001816124ef60026001600160a01b03940194855490876129d2565b0154169054916129d2565b60405162461bcd60e51b815260206004820152600c60248201527f6e6f74207265736f6c76656400000000000000000000000000000000000000006044820152606490fd5b60405162461bcd60e51b815260206004820152601060248201527f696e636f6d706c657465206d61746368000000000000000000000000000000006044820152606490fd5b506001600160a01b03600183015416151561232b565b6001830180546001600160a01b031661262d5750506001600160a01b038254168033036125e85760026125cf930154916129d2565b805469ff0000000000000000001916600360481b179055565b60405162461bcd60e51b815260206004820152600b60248201527f6e6f7420706c61796572410000000000000000000000000000000000000000006044820152606490fd5b6001600160a01b039061264a6002612654960193845490866129d2565b54169054916129d2565b6125cf565b60405162461bcd60e51b815260206004820152601160248201527f7072616374696365206e6f2066756e64730000000000000000000000000000006044820152606490fd5b156126a557565b60405162461bcd60e51b815260206004820152600e60248201527f7374616b65206d69736d617463680000000000000000000000000000000000006044820152606490fd5b156126f157565b60405162461bcd60e51b815260206004820152601360248201527f6e6f2045544820666f72207072616374696365000000000000000000000000006044820152606490fd5b92919261274282612272565b916127506040519384612133565b829481845281830111610190578281602093845f960137010152565b908115612810575b80156127fe575b60209060646001600160a01b035f516020612dd95f395f51905f525416935f604051958694859363f77f3f1d60e01b8552600485015260248401528160448401525af1908115610740575f916127cf575090565b90506020813d6020116127f6575b816127ea60209383612133565b81010312610190575190565b3d91506127dd565b506020612809612b67565b905061277b565b905061281a612b67565b90612774565b908115612896575b8015612883575b60209060646001600160a01b035f516020612dd95f395f51905f525416935f604051958694859363d99882d560e01b8552600485015260248401528160448401525af1908115610740575f916127cf575090565b50602061288f5f612ca2565b905061282f565b90506128a15f612ca2565b90612828565b90811561291d575b801561290a575b60209060646001600160a01b035f516020612dd95f395f51905f525416935f60405195869485936363a2db2960e01b8552600485015260248401528160448401525af1908115610740575f916127cf575090565b5060206129165f612ca2565b90506128b6565b90506129285f612ca2565b906128af565b5f52600960205260405f205f5b8154808210156129cc57836129508385611afa565b90549060031b1c14612965575060010161293b565b9192505f19820191821161074b57610c316129836129919385611afa565b90549060031b1c9184611afa565b805480156129b8575f1901906129a78282611afa565b8154905f199060031b1b1916905555565b634e487b7160e01b5f52603160045260245ffd5b50505050565b908215612a51575f80808086855af16129e961228e565b5015612a265760206001600160a01b037f0508a8b4117d9a7b3d8f5895f6413e61b4f9a2df35afbfb41e78d0ecfff1843f926040519586521693a3565b606460405162461bcd60e51b81526020600482015260046024820152633c3332b960e11b6044820152fd5b505050565b612aa6916020916001600160a01b035f516020612dd95f395f51905f525416905f60405180968195829463196d0b9b60e01b84526004840152336024840152608060448401526084830190612db4565b6002606483015203925af1908115610740575f91612b35575b506001600160a01b037f9e7b61f58c47dc699ac88507c4f5bb9f121c03808c5676a8078fe583e46497005416803b1561019057604051630f8e573b60e21b815260048101839052336024820152905f908290604490829084905af1801561074057612b28575090565b5f612b3291612133565b90565b90506020813d602011612b5f575b81612b5060209383612133565b8101031261019057515f612abf565b3d9150612b43565b5f516020612dd95f395f51905f5254604051639cd07acb60e01b81525f6004820152906001600160a01b0316816044815f602094600260248401525af1908115610740575f916127cf575090565b5f516020612dd95f395f51905f5254604051639cd07acb60e01b815260016004820152906001600160a01b0316816044815f602094600260248401525af1908115610740575f916127cf575090565b5f516020612dd95f395f51905f5254604051639cd07acb60e01b815260026004820152906001600160a01b0316816044815f602094600260248401525af1908115610740575f916127cf575090565b5f516020612dd95f395f51905f5254604051639cd07acb60e01b815260048101929092526001600160a01b0316816044815f602094600760248401525af1908115610740575f916127cf575090565b5f516020612dd95f395f51905f5254604051639cd07acb60e01b815260048101929092526001600160a01b0316816044815f6020948160248401525af1908115610740575f916127cf575090565b60205f9160246001600160a01b035f516020612dd95f395f51905f525416916040519485938492630f51ccfb60e41b845260048401525af1908115610740575f916127cf575090565b6001600160a01b037f9e7b61f58c47dc699ac88507c4f5bb9f121c03808c5676a8078fe583e4649700541691823b1561019057604051635ca4b5b160e11b815260048101929092526001600160a01b03166024820152905f908290604490829084905af1801561074057612daa5750565b5f6123bc91612133565b805180835260209291819084018484015e5f828201840152601f01601f191601019056fe9e7b61f58c47dc699ac88507c4f5bb9f121c03808c5676a8078fe583e4649701a164736f6c634300081b000a",
  "devdoc": {
    "kind": "dev",
    "methods": {
      "createAndCommit(bytes32,bytes,uint8,uint256,uint64)": {
        "params": {
          "deadline": " (unix seconds)",
          "encMove": " euint80=R,1=P,2=S",
          "inputProof": "",
          "mode": " (PRACTICE=0, WAGER=1)",
          "stake": " (PRACTICE  0)"
        },
        "returns": {
          "matchId": " ID ()"
        }
      },
      "expireCreated(bytes32)": {
        "details": " EXPIRED playerA "
      },
      "getPendingMatches(uint8,uint256,uint256,uint256)": {
        "params": {
          "limit": "",
          "mode": "",
          "offset": "",
          "stake": ""
        },
        "returns": {
          "matchIds": " ID ",
          "total": ""
        }
      },
      "joinAndCommit(bytes32,bytes32,bytes)": {
        "params": {
          "encMove": " euint80=R,1=P,2=S",
          "inputProof": "",
          "matchId": " ID"
        }
      }
    },
    "title": "PrivateRPS -  FHEVM ",
    "version": 1
  },
  "userdoc": {
    "errors": {
      "InvalidKMSSignatures()": [
        {
          "notice": "Returned if the returned KMS signatures are not valid."
        }
      ],
      "NoHandleFoundForRequestID()": [
        {
          "notice": "Returned if there was not handle found for the requested ID."
        }
      ]
    },
    "events": {
      "DecryptionFulfilled(uint256)": {
        "notice": "This event is emitted when requested decryption has been fulfilled."
      }
    },
    "kind": "user",
    "methods": {
      "attestWinner(bytes32,address)": {
        "notice": "A/B "
      },
      "createAndCommit(bytes32,bytes,uint8,uint256,uint64)": {
        "notice": " ( matchId)"
      },
      "expireCreated(bytes32)": {
        "notice": " CREATED  playerA playerB"
      },
      "expireLocked(bytes32)": {
        "notice": "LOCKED  grace "
      },
      "finalizeWinner(bytes32,address)": {
        "notice": " relayer  KMS "
      },
      "getEncryptedOutcome(bytes32)": {
        "notice": ""
      },
      "getPendingMatchCount(uint8,uint256)": {
        "notice": " (mode, stake) "
      },
      "getPendingMatches(uint8,uint256,uint256,uint256)": {
        "notice": " (mode, stake) "
      },
      "joinAndCommit(bytes32,bytes32,bytes)": {
        "notice": ""
      },
      "onDecryption(uint256,bytes,bytes)": {
        "notice": " relayer  cleartexts  1  32  20 "
      },
      "resolve(bytes32)": {
        "notice": " -  EXPIRED -  winner=address(0)"
      }
    },
    "notice": " euint8 0=R,1=P,2=S",
    "version": 1
  },
  "storageLayout": {
    "storage": [
      {
        "astId": 39182,
        "contract": "contracts/PrivateRPS.sol:PrivateRPS",
        "label": "owner",
        "offset": 0,
        "slot": "0",
        "type": "t_address"
      },
      {
        "astId": 39184,
        "contract": "contracts/PrivateRPS.sol:PrivateRPS",
        "label": "rakeBps",
        "offset": 20,
        "slot": "0",
        "type": "t_uint16"
      },
      {
        "astId": 39186,
        "contract": "contracts/PrivateRPS.sol:PrivateRPS",
        "label": "feeRecipient",
        "offset": 0,
        "slot": "1",
        "type": "t_address"
      },
      {
        "astId": 39188,
        "contract": "contracts/PrivateRPS.sol:PrivateRPS",
        "label": "minStake",
        "offset": 0,
        "slot": "2",
        "type": "t_uint256"
      },
      {
        "astId": 39190,
        "contract": "contracts/PrivateRPS.sol:PrivateRPS",
        "label": "maxStake",
        "offset": 0,
        "slot": "3",
        "type": "t_uint256"
      },
      {
        "astId": 39192,
        "contract": "contracts/PrivateRPS.sol:PrivateRPS",
        "label": "maxDeadlineDelta",
        "offset": 0,
        "slot": "4",
        "type": "t_uint64"
      },
      {
        "astId": 39194,
        "contract": "contracts/PrivateRPS.sol:PrivateRPS",
        "label": "relayer",
        "offset": 8,
        "slot": "4",
        "type": "t_address"
      },
      {
        "astId": 39196,
        "contract": "contracts/PrivateRPS.sol:PrivateRPS",
        "label": "attestGrace",
        "offset": 0,
        "slot": "5",
        "type": "t_uint64"
      },
      {
        "astId": 39201,
        "contract": "contracts/PrivateRPS.sol:PrivateRPS",
        "label": "matches",
        "offset": 0,
        "slot": "6",
        "type": "t_mapping(t_bytes32,t_struct(MatchInfo)39180_storage)"
      },
      {
        "astId": 39205,
        "contract": "contracts/PrivateRPS.sol:PrivateRPS",
        "label": "requestIdToMatchId",
        "offset": 0,
        "slot": "7",
        "type": "t_mapping(t_uint256,t_bytes32)"
      },
      {
        "astId": 39211,
        "contract": "contracts/PrivateRPS.sol:PrivateRPS",
        "label": "attestedWinner",
        "offset": 0,
        "slot": "8",
        "type": "t_mapping(t_bytes32,t_mapping(t_address,t_address))"
      },
      {
        "astId": 39216,
        "contract": "contracts/PrivateRPS.sol:PrivateRPS",
        "label": "matchQueue",
        "offset": 0,
        "slot": "9",
        "type": "t_mapping(t_bytes32,t_array(t_bytes32)dyn_storage)"
      },
      {
        "astId": 39218,
        "contract": "contracts/PrivateRPS.sol:PrivateRPS",
        "label": "_entered",
        "offset": 0,
        "slot": "10",
        "type": "t_uint256"
      }
    ],
    "types": {
      "t_address": {
        "encoding": "inplace",
        "label": "address",
        "numberOfBytes": "20"
      },
      "t_array(t_bytes32)dyn_storage": {
        "base": "t_bytes32",
        "encoding": "dynamic_array",
        "label": "bytes32[]",
        "numberOfBytes": "32"
      },
      "t_bytes32": {
        "encoding": "inplace",
        "label": "bytes32",
        "numberOfBytes": "32"
      },
      "t_enum(MatchMode)39148": {
        "encoding": "inplace",
        "label": "enum PrivateRPS.MatchMode",
        "numberOfBytes": "1"
      },
      "t_enum(State)39154": {
        "encoding": "inplace",
        "label": "enum PrivateRPS.State",
        "numberOfBytes": "1"
      },
      "t_mapping(t_address,t_address)": {
        "encoding": "mapping",
        "key": "t_address",
        "label": "mapping(address => address)",
        "numberOfBytes": "32",
        "value": "t_address"
      },
      "t_mapping(t_bytes32,t_array(t_bytes32)dyn_storage)": {
        "encoding": "mapping",
        "key": "t_bytes32",
        "label": "mapping(bytes32 => bytes32[])",
        "numberOfBytes": "32",
        "value": "t_array(t_bytes32)dyn_storage"
      },
      "t_mapping(t_bytes32,t_mapping(t_address,t_address))": {
        "encoding": "mapping",
        "key": "t_bytes32",
        "label": "mapping(bytes32 => mapping(address => address))",
        "numberOfBytes": "32",
        "value": "t_mapping(t_address,t_address)"
      },
      "t_mapping(t_bytes32,t_struct(MatchInfo)39180_storage)": {
        "encoding": "mapping",
        "key": "t_bytes32",
        "label": "mapping(bytes32 => struct PrivateRPS.MatchInfo)",
        "numberOfBytes": "32",
        "value": "t_struct(MatchInfo)39180_storage"
      },
      "t_mapping(t_uint256,t_bytes32)": {
        "encoding": "mapping",
        "key": "t_uint256",
        "label": "mapping(uint256 => bytes32)",
        "numberOfBytes": "32",
        "value": "t_bytes32"
      },
      "t_struct(MatchInfo)39180_storage": {
        "encoding": "inplace",
        "label": "struct PrivateRPS.MatchInfo",
        "members": [
          {
            "astId": 39156,
            "contract": "contracts/PrivateRPS.sol:PrivateRPS",
            "label": "playerA",
            "offset": 0,
            "slot": "0",
            "type": "t_address"
          },
          {
            "astId": 39158,
            "contract": "contracts/PrivateRPS.sol:PrivateRPS",
            "label": "playerB",
            "offset": 0,
            "slot": "1",
            "type": "t_address"
          },
          {
            "astId": 39160,
            "contract": "contracts/PrivateRPS.sol:PrivateRPS",
            "label": "stake",
            "offset": 0,
            "slot": "2",
            "type": "t_uint256"
          },
          {
            "astId": 39162,
            "contract": "contracts/PrivateRPS.sol:PrivateRPS",
            "label": "deadline",
            "offset": 0,
            "slot": "3",
            "type": "t_uint64"
          },
          {
            "astId": 39165,
            "contract": "contracts/PrivateRPS.sol:PrivateRPS",
            "label": "mode",
            "offset": 8,
            "slot": "3",
            "type": "t_enum(MatchMode)39148"
          },
          {
            "astId": 39168,
            "contract": "contracts/PrivateRPS.sol:PrivateRPS",
            "label": "state",
            "offset": 9,
            "slot": "3",
            "type": "t_enum(State)39154"
          },
          {
            "astId": 39171,
            "contract": "contracts/PrivateRPS.sol:PrivateRPS",
            "label": "moveA",
            "offset": 0,
            "slot": "4",
            "type": "t_userDefinedValueType(euint8)41179"
          },
          {
            "astId": 39174,
            "contract": "contracts/PrivateRPS.sol:PrivateRPS",
            "label": "moveB",
            "offset": 0,
            "slot": "5",
            "type": "t_userDefinedValueType(euint8)41179"
          },
          {
            "astId": 39176,
            "contract": "contracts/PrivateRPS.sol:PrivateRPS",
            "label": "winner",
            "offset": 0,
            "slot": "6",
            "type": "t_address"
          },
          {
            "astId": 39179,
            "contract": "contracts/PrivateRPS.sol:PrivateRPS",
            "label": "winnerEnc",
            "offset": 0,
            "slot": "7",
            "type": "t_userDefinedValueType(eaddress)41307"
          }
        ],
        "numberOfBytes": "256"
      },
      "t_uint16": {
        "encoding": "inplace",
        "label": "uint16",
        "numberOfBytes": "2"
      },
      "t_uint256": {
        "encoding": "inplace",
        "label": "uint256",
        "numberOfBytes": "32"
      },
      "t_uint64": {
        "encoding": "inplace",
        "label": "uint64",
        "numberOfBytes": "8"
      },
      "t_userDefinedValueType(eaddress)41307": {
        "encoding": "inplace",
        "label": "eaddress",
        "numberOfBytes": "32"
      },
      "t_userDefinedValueType(euint8)41179": {
        "encoding": "inplace",
        "label": "euint8",
        "numberOfBytes": "32"
      }
    }
  }
}